{
  "_format": "hh-sol-artifact-1",
  "contractName": "CPAMM",
  "sourceName": "contracts/CPAMM.sol",
  "abi": [
    {
      "inputs": [
        {
          "internalType": "contract IERC20",
          "name": "_tokenA",
          "type": "address"
        },
        {
          "internalType": "contract IERC20",
          "name": "_tokenB",
          "type": "address"
        }
      ],
      "stateMutability": "nonpayable",
      "type": "constructor"
    },
    {
      "inputs": [
        {
          "internalType": "uint256",
          "name": "_amountA",
          "type": "uint256"
        },
        {
          "internalType": "uint256",
          "name": "_amountB",
          "type": "uint256"
        }
      ],
      "name": "addLiquidity",
      "outputs": [
        {
          "internalType": "uint256",
          "name": "_shares",
          "type": "uint256"
        }
      ],
      "stateMutability": "nonpayable",
      "type": "function"
    },
    {
      "inputs": [
        {
          "internalType": "address",
          "name": "",
          "type": "address"
        }
      ],
      "name": "balanceOf",
      "outputs": [
        {
          "internalType": "uint256",
          "name": "",
          "type": "uint256"
        }
      ],
      "stateMutability": "view",
      "type": "function"
    },
    {
      "inputs": [],
      "name": "owner",
      "outputs": [
        {
          "internalType": "address",
          "name": "",
          "type": "address"
        }
      ],
      "stateMutability": "view",
      "type": "function"
    },
    {
      "inputs": [
        {
          "internalType": "uint256",
          "name": "_shares",
          "type": "uint256"
        }
      ],
      "name": "removeLiquidity",
      "outputs": [
        {
          "internalType": "uint256",
          "name": "_amountA",
          "type": "uint256"
        },
        {
          "internalType": "uint256",
          "name": "_amountB",
          "type": "uint256"
        }
      ],
      "stateMutability": "nonpayable",
      "type": "function"
    },
    {
      "inputs": [],
      "name": "reserveA",
      "outputs": [
        {
          "internalType": "uint256",
          "name": "",
          "type": "uint256"
        }
      ],
      "stateMutability": "view",
      "type": "function"
    },
    {
      "inputs": [],
      "name": "reserveB",
      "outputs": [
        {
          "internalType": "uint256",
          "name": "",
          "type": "uint256"
        }
      ],
      "stateMutability": "view",
      "type": "function"
    },
    {
      "inputs": [
        {
          "internalType": "address",
          "name": "_tokenToSwap",
          "type": "address"
        },
        {
          "internalType": "uint256",
          "name": "_amountToSwap",
          "type": "uint256"
        }
      ],
      "name": "swap",
      "outputs": [
        {
          "internalType": "uint256",
          "name": "_amountGiven",
          "type": "uint256"
        }
      ],
      "stateMutability": "nonpayable",
      "type": "function"
    },
    {
      "inputs": [],
      "name": "tokenA",
      "outputs": [
        {
          "internalType": "contract IERC20",
          "name": "",
          "type": "address"
        }
      ],
      "stateMutability": "view",
      "type": "function"
    },
    {
      "inputs": [],
      "name": "tokenB",
      "outputs": [
        {
          "internalType": "contract IERC20",
          "name": "",
          "type": "address"
        }
      ],
      "stateMutability": "view",
      "type": "function"
    },
    {
      "inputs": [],
      "name": "totalSupply",
      "outputs": [
        {
          "internalType": "uint256",
          "name": "",
          "type": "uint256"
        }
      ],
      "stateMutability": "view",
      "type": "function"
    }
  ],
  "bytecode": "0x60c06040523480156200001157600080fd5b5060405162001c1e38038062001c1e833981810160405281019062000037919062000165565b336000806101000a81548173ffffffffffffffffffffffffffffffffffffffff021916908373ffffffffffffffffffffffffffffffffffffffff1602179055508173ffffffffffffffffffffffffffffffffffffffff1660808173ffffffffffffffffffffffffffffffffffffffff16815250508073ffffffffffffffffffffffffffffffffffffffff1660a08173ffffffffffffffffffffffffffffffffffffffff16815250505050620001ac565b600080fd5b600073ffffffffffffffffffffffffffffffffffffffff82169050919050565b60006200011982620000ec565b9050919050565b60006200012d826200010c565b9050919050565b6200013f8162000120565b81146200014b57600080fd5b50565b6000815190506200015f8162000134565b92915050565b600080604083850312156200017f576200017e620000e7565b5b60006200018f858286016200014e565b9250506020620001a2858286016200014e565b9150509250929050565b60805160a0516119d5620002496000396000818161024a01528181610412015281816105fc01528181610793015281816109f901528181610af501528181610c2501528181610c930152610ea301526000818161021a015281816103740152818161055d015281816106f20152818161095f01528181610aa001528181610bc901528181610c4601528181610c720152610e0901526119d56000f3fe608060405234801561001057600080fd5b506004361061009e5760003560e01c80638da5cb5b116100665780638da5cb5b1461014b5780639c8f9f23146101695780639cd441da1461019a578063d004f0f7146101ca578063dc5fa6c5146101fa5761009e565b80630fc63d10146100a357806318160ddd146100c157806319e36f3b146100df5780635f64b55b146100fd57806370a082311461011b575b600080fd5b6100ab610218565b6040516100b8919061113f565b60405180910390f35b6100c961023c565b6040516100d69190611173565b60405180910390f35b6100e7610242565b6040516100f49190611173565b60405180910390f35b610105610248565b604051610112919061113f565b60405180910390f35b610135600480360381019061013091906111d1565b61026c565b6040516101429190611173565b60405180910390f35b610153610284565b604051610160919061120d565b60405180910390f35b610183600480360381019061017e9190611254565b6102a8565b604051610191929190611281565b60405180910390f35b6101b460048036038101906101af91906112aa565b6106a0565b6040516101c19190611173565b60405180910390f35b6101e460048036038101906101df91906112ea565b610a9c565b6040516101f19190611173565b60405180910390f35b610202610f4c565b60405161020f9190611173565b60405180910390f35b7f000000000000000000000000000000000000000000000000000000000000000081565b60035481565b60025481565b7f000000000000000000000000000000000000000000000000000000000000000081565b60046020528060005260406000206000915090505481565b60008054906101000a900473ffffffffffffffffffffffffffffffffffffffff1681565b600080600460003373ffffffffffffffffffffffffffffffffffffffff1673ffffffffffffffffffffffffffffffffffffffff1681526020019081526020016000205483111561032d576040517f08c379a0000000000000000000000000000000000000000000000000000000008152600401610324906113ad565b60405180910390fd5b60008311610370576040517f08c379a0000000000000000000000000000000000000000000000000000000008152600401610367906113ad565b60405180910390fd5b60007f000000000000000000000000000000000000000000000000000000000000000073ffffffffffffffffffffffffffffffffffffffff166370a08231306040518263ffffffff1660e01b81526004016103cb919061120d565b602060405180830381865afa1580156103e8573d6000803e3d6000fd5b505050506040513d601f19601f8201168201806040525081019061040c91906113e2565b905060007f000000000000000000000000000000000000000000000000000000000000000073ffffffffffffffffffffffffffffffffffffffff166370a08231306040518263ffffffff1660e01b8152600401610469919061120d565b602060405180830381865afa158015610486573d6000803e3d6000fd5b505050506040513d601f19601f820116820180604052508101906104aa91906113e2565b905060035482866104bb919061143e565b6104c591906114af565b935060035481866104d6919061143e565b6104e091906114af565b92506000841180156104f25750600083115b610531576040517f08c379a000000000000000000000000000000000000000000000000000000000815260040161052890611578565b60405180910390fd5b61053b3386610f52565b61055b848361054a9190611598565b84836105569190611598565b610fc5565b7f000000000000000000000000000000000000000000000000000000000000000073ffffffffffffffffffffffffffffffffffffffff1663a9059cbb33866040518363ffffffff1660e01b81526004016105b69291906115cc565b6020604051808303816000875af11580156105d5573d6000803e3d6000fd5b505050506040513d601f19601f820116820180604052508101906105f9919061162d565b507f000000000000000000000000000000000000000000000000000000000000000073ffffffffffffffffffffffffffffffffffffffff1663a9059cbb33856040518363ffffffff1660e01b81526004016106559291906115cc565b6020604051808303816000875af1158015610674573d6000803e3d6000fd5b505050506040513d601f19601f82011682018060405250810190610698919061162d565b505050915091565b600080831180156106b15750600082115b6106f0576040517f08c379a00000000000000000000000000000000000000000000000000000000081526004016106e7906116cc565b60405180910390fd5b7f000000000000000000000000000000000000000000000000000000000000000073ffffffffffffffffffffffffffffffffffffffff166323b872dd3330866040518463ffffffff1660e01b815260040161074d939291906116ec565b6020604051808303816000875af115801561076c573d6000803e3d6000fd5b505050506040513d601f19601f82011682018060405250810190610790919061162d565b507f000000000000000000000000000000000000000000000000000000000000000073ffffffffffffffffffffffffffffffffffffffff166323b872dd3330856040518463ffffffff1660e01b81526004016107ee939291906116ec565b6020604051808303816000875af115801561080d573d6000803e3d6000fd5b505050506040513d601f19601f82011682018060405250810190610831919061162d565b506000600154118061084557506000600254115b156108a75782600254610858919061143e565b82600154610866919061143e565b146108a6576040517f08c379a000000000000000000000000000000000000000000000000000000000815260040161089d90611795565b60405180910390fd5b5b6000600354036108cc576108c582846108c0919061143e565b610fd7565b905061090d565b61090a600154600354856108e0919061143e565b6108ea91906114af565b600254600354856108fb919061143e565b61090591906114af565b611034565b90505b60008111610950576040517f08c379a000000000000000000000000000000000000000000000000000000000815260040161094790611827565b60405180910390fd5b61095a338261104d565b610a967f000000000000000000000000000000000000000000000000000000000000000073ffffffffffffffffffffffffffffffffffffffff166370a08231306040518263ffffffff1660e01b81526004016109b6919061120d565b602060405180830381865afa1580156109d3573d6000803e3d6000fd5b505050506040513d601f19601f820116820180604052508101906109f791906113e2565b7f000000000000000000000000000000000000000000000000000000000000000073ffffffffffffffffffffffffffffffffffffffff166370a08231306040518263ffffffff1660e01b8152600401610a50919061120d565b602060405180830381865afa158015610a6d573d6000803e3d6000fd5b505050506040513d601f19601f82011682018060405250810190610a9191906113e2565b610fc5565b92915050565b60007f000000000000000000000000000000000000000000000000000000000000000073ffffffffffffffffffffffffffffffffffffffff168373ffffffffffffffffffffffffffffffffffffffff161480610b4357507f000000000000000000000000000000000000000000000000000000000000000073ffffffffffffffffffffffffffffffffffffffff168373ffffffffffffffffffffffffffffffffffffffff16145b610b82576040517f08c379a0000000000000000000000000000000000000000000000000000000008152600401610b79906118b9565b60405180910390fd5b60008211610bc5576040517f08c379a0000000000000000000000000000000000000000000000000000000008152600401610bbc9061194b565b60405180910390fd5b60007f000000000000000000000000000000000000000000000000000000000000000073ffffffffffffffffffffffffffffffffffffffff168473ffffffffffffffffffffffffffffffffffffffff1614905060008060008084610c70577f00000000000000000000000000000000000000000000000000000000000000007f0000000000000000000000000000000000000000000000000000000000000000600254600154610cb9565b7f00000000000000000000000000000000000000000000000000000000000000007f00000000000000000000000000000000000000000000000000000000000000006001546002545b93509350935093508373ffffffffffffffffffffffffffffffffffffffff166323b872dd33308a6040518463ffffffff1660e01b8152600401610cfe939291906116ec565b6020604051808303816000875af1158015610d1d573d6000803e3d6000fd5b505050506040513d601f19601f82011682018060405250810190610d41919061162d565b5060006103e86103e589610d55919061143e565b610d5f91906114af565b90508083610d6d919061196b565b8183610d79919061143e565b610d8391906114af565b96508373ffffffffffffffffffffffffffffffffffffffff1663a9059cbb33896040518363ffffffff1660e01b8152600401610dc09291906115cc565b6020604051808303816000875af1158015610ddf573d6000803e3d6000fd5b505050506040513d601f19601f82011682018060405250810190610e03919061162d565b50610f407f000000000000000000000000000000000000000000000000000000000000000073ffffffffffffffffffffffffffffffffffffffff166370a08231306040518263ffffffff1660e01b8152600401610e60919061120d565b602060405180830381865afa158015610e7d573d6000803e3d6000fd5b505050506040513d601f19601f82011682018060405250810190610ea191906113e2565b7f000000000000000000000000000000000000000000000000000000000000000073ffffffffffffffffffffffffffffffffffffffff166370a08231306040518263ffffffff1660e01b8152600401610efa919061120d565b602060405180830381865afa158015610f17573d6000803e3d6000fd5b505050506040513d601f19601f82011682018060405250810190610f3b91906113e2565b610fc5565b50505050505092915050565b60015481565b8060036000828254610f649190611598565b9250508190555080600460008473ffffffffffffffffffffffffffffffffffffffff1673ffffffffffffffffffffffffffffffffffffffff1681526020019081526020016000206000828254610fba9190611598565b925050819055505050565b81600181905550806002819055505050565b6000806002600184610fe9919061196b565b610ff391906114af565b90508291505b8181101561102e57809150600281828561101391906114af565b61101d919061196b565b61102791906114af565b9050610ff9565b50919050565b60008183106110435781611045565b825b905092915050565b806003600082825461105f919061196b565b9250508190555080600460008473ffffffffffffffffffffffffffffffffffffffff1673ffffffffffffffffffffffffffffffffffffffff16815260200190815260200160002060008282546110b5919061196b565b925050819055505050565b600073ffffffffffffffffffffffffffffffffffffffff82169050919050565b6000819050919050565b60006111056111006110fb846110c0565b6110e0565b6110c0565b9050919050565b6000611117826110ea565b9050919050565b60006111298261110c565b9050919050565b6111398161111e565b82525050565b60006020820190506111546000830184611130565b92915050565b6000819050919050565b61116d8161115a565b82525050565b60006020820190506111886000830184611164565b92915050565b600080fd5b600061119e826110c0565b9050919050565b6111ae81611193565b81146111b957600080fd5b50565b6000813590506111cb816111a5565b92915050565b6000602082840312156111e7576111e661118e565b5b60006111f5848285016111bc565b91505092915050565b61120781611193565b82525050565b600060208201905061122260008301846111fe565b92915050565b6112318161115a565b811461123c57600080fd5b50565b60008135905061124e81611228565b92915050565b60006020828403121561126a5761126961118e565b5b60006112788482850161123f565b91505092915050565b60006040820190506112966000830185611164565b6112a36020830184611164565b9392505050565b600080604083850312156112c1576112c061118e565b5b60006112cf8582860161123f565b92505060206112e08582860161123f565b9150509250929050565b600080604083850312156113015761130061118e565b5b600061130f858286016111bc565b92505060206113208582860161123f565b9150509250929050565b600082825260208201905092915050565b7f4350414d4d2e72656d6f76654c697175696469747928293a20496e76616c696460008201527f20616d6f756e74206f662073686172657320746f206275726e00000000000000602082015250565b600061139760398361132a565b91506113a28261133b565b604082019050919050565b600060208201905081810360008301526113c68161138a565b9050919050565b6000815190506113dc81611228565b92915050565b6000602082840312156113f8576113f761118e565b5b6000611406848285016113cd565b91505092915050565b7f4e487b7100000000000000000000000000000000000000000000000000000000600052601160045260246000fd5b60006114498261115a565b91506114548361115a565b92508282026114628161115a565b915082820484148315176114795761147861140f565b5b5092915050565b7f4e487b7100000000000000000000000000000000000000000000000000000000600052601260045260246000fd5b60006114ba8261115a565b91506114c58361115a565b9250826114d5576114d4611480565b5b828204905092915050565b7f4350414d4d2e72656d6f76654c697175696469747928293a20496e76616c696460008201527f20616d6f756e74206f6620746f6b656e7320746f2073656e6420746f206d736760208201527f2e73656e64657200000000000000000000000000000000000000000000000000604082015250565b600061156260478361132a565b915061156d826114e0565b606082019050919050565b6000602082019050818103600083015261159181611555565b9050919050565b60006115a38261115a565b91506115ae8361115a565b92508282039050818111156115c6576115c561140f565b5b92915050565b60006040820190506115e160008301856111fe565b6115ee6020830184611164565b9392505050565b60008115159050919050565b61160a816115f5565b811461161557600080fd5b50565b60008151905061162781611601565b92915050565b6000602082840312156116435761164261118e565b5b600061165184828501611618565b91505092915050565b7f4350414d4d2e6164644c697175696469747928293a20496e76616c696420616d60008201527f6f756e74206f6620746f6b656e7320746f206164640000000000000000000000602082015250565b60006116b660358361132a565b91506116c18261165a565b604082019050919050565b600060208201905081810360008301526116e5816116a9565b9050919050565b600060608201905061170160008301866111fe565b61170e60208301856111fe565b61171b6040830184611164565b949350505050565b7f4350414d4d2e6164644c697175696469747928293a206479202f20647820213d60008201527f2079202f20783b20707269636520697320616666656374656400000000000000602082015250565b600061177f60398361132a565b915061178a82611723565b604082019050919050565b600060208201905081810360008301526117ae81611772565b9050919050565b7f4350414d4d2e6164644c697175696469747928293a20496e76616c696420616d60008201527f6f756e74206f662073686172657320746f206d696e7400000000000000000000602082015250565b600061181160368361132a565b915061181c826117b5565b604082019050919050565b6000602082019050818103600083015261184081611804565b9050919050565b7f4350414d4d2e7377617028293a20496e76616c696420746f6b656e20746f207360008201527f7761700000000000000000000000000000000000000000000000000000000000602082015250565b60006118a360238361132a565b91506118ae82611847565b604082019050919050565b600060208201905081810360008301526118d281611896565b9050919050565b7f4350414d4d2e7377617028293a20496e76616c696420616d6f756e7420746f2060008201527f7377617000000000000000000000000000000000000000000000000000000000602082015250565b600061193560248361132a565b9150611940826118d9565b604082019050919050565b6000602082019050818103600083015261196481611928565b9050919050565b60006119768261115a565b91506119818361115a565b92508282019050808211156119995761199861140f565b5b9291505056fea264697066735822122093027cc21737bf6b4882949f9ae9e0d0109a399a5988a0bdb85bbd640a359b6564736f6c63430008140033",
  "linkReferences": {},
  "deployedLinkReferences": {}
}